:100000000C9446000C945D000C945D000C945D0013
:100010000C945D000C945D000C945D000C945D00EC
:100020000C945D000C945D000C945D000C945D00DC
:100030000C945D000C945D000C945D000C945D00CC
:100040000C945D000C945D000C945D000C945D00BC
:100050000C945D000C945D000C945D000C945D00AC
:100060000C945D000C945D000C945D000C945D009C
:100070000C945D000C945D000C945D000C945D008C
:100080000C945D000C945D000C945D0011241FBE67
:10009000CFEFD0E4DEBFCDBF11E0A0E0B1E0E6E1FC
:1000A000F1E000E00BBF02C007900D92AE30B10747
:1000B000D9F70E9470000C9489000C940000CF9333
:1000C000C82F8A3019F48DE00E945F009091C00023
:1000D00095FFFCCFC093C60080E090E0CF910895DB
:1000E00011B88FEF82B984B915B890E080B18370F0
:1000F00039F0813039F0823039F0833041F406C074
:1001000090E005C091E003C090E001C090E095B997
:06011000EDCFF894FFCFD3
:0E01160000000002000000005F00000000007A
:00000001FF
